:020000040800F2
:100000004006002001010008DB1D0008C11A00089D
:10001000D91D0008E902000855250008000000006D
:100020000000000000000000000000006120000847
:10003000D703000800000000FD1D00086320000831
:100040001B0100081B0100081B0100081B01000820
:100050001B0100081B0100081B0100081B01000810
:100060001B0100081B0100081B010008A103000878
:100070001B0100081B0100081B0100081B010008F0
:100080001B0100081B0100081B0100081B010008E0
:100090001B0100081B0100081B0100081B010008D0
:1000A0001B0100081B0100081B0100081B010008C0
:1000B0001B0100081B0100081B0100081B010008B0
:1000C0001B0100081B0100081B0100081B010008A0
:1000D0001B010008492500081B0100081B0100083E
:1000E0001B0100081B0100081B010008DFF80CD0F1
:1000F00000F018F800480047792500084006002065
:100100000648804706480047FEE7FEE7FEE7FEE7B1
:10011000FEE7FEE7FEE7FEE7FEE7FEE7F120000868
:10012000ED000008064C074D06E0E06840F00103D2
:1001300094E8070098471034AC42F6D3FFF7DAFF93
:100140006C2700088C27000870B504460068816899
:10015000C943C9071CD1816821F00101816000F009
:1001600059FE05460FE000BF00F054FE401B022878
:1001700009D9A06A40F01000A062E06A40F00100D6
:10018000E062012070BD20688068C043C007EBD0EA
:10019000002070BD10B50146406A826A12F0500F0F
:1001A00005D0006A026BBDE8104008461047816A1E
:1001B00041F40071816201688968C1F342410729F5
:1001C0000CD1C16851B9816A21F480718162816A60
:1001D000C90403D4816A41F00101816200F09CF9F5
:1001E00010BD10B5406A816A41F040018162C16A68
:1001F00041F00401C16200F091F910BD10B5406AF0
:1002000000F08BF910BD0000F8B5002604460096FA
:1002100000688168C943C90728D0816841F001019D
:100220008160134813490068B0FBF1F000E0401E04
:1002300000900028FBD100F0EDFD054611E000BF65
:1002400000F0E8FD401B02280BD9A06A40F0100026
:10025000A062E06A40F00100E06284F824600120BE
:10026000F8BD20688068C043C007E9D10020F8BD10
:100270006400002040420F0070B505460A4C00099A
:100280000A28607001D2303000E0373001F0E2FF20
:1002900005F00F0020700A2801D2303000E037301E
:1002A000BDE8704001F0D6BF4600002070B50C4C90
:1002B000207830B90222A11C0A4800F009FA012076
:1002C0002070074DAD1C288800F086F80446688829
:1002D00000F082F80146200100F0F000084370BDF4
:1002E00000000020E8000020FEE700002DE9FC41AE
:1002F000884624A10446D1E90001244DCDE900013E
:10030000A87810B10120BDE8FC810122204F16021F
:100310003146384600F079FD052000F081FC0421CB
:10032000684601F0A1FF204601F094FF194C2078A7
:1003300001F090FF002001F08DFF0A2001F08AFFFC
:10034000052115A001F090FF217801EB0800C0B253
:10035000FFF792FF402001F07DFF2078FFF78CFF30
:100360000D2001F077FF0A2001F074FF052000F056
:1003700057FC00223146384600F047FD0020A870A7
:10038000C1E700005842555300000000460000201D
:1003900000080140520000200D0A49443A000000C4
:1003A000014800F029BB0000FC01002030B590F8A6
:1003B00040500124AC40C56B6C60046863604368C6
:1003C000102B036803D099600068C26030BD9A604A
:1003D0000068C16030BD704700B500F007F8024901
:1003E00001EB8000807800BD0600002030B50024BD
:1003F000094D0146224600BF35F82230C31A00D508
:100400005B429BB2994201D91946D4B2521C102AC0
:10041000F2DB204630BD000006000020F8B50024C5
:10042000009490F824202546012A12D0012280F859
:1004300024204A681F23072A0DD20668776B521EB4
:1004400002EB820293409F430B6893401F43776304
:1004500019E00220F8BD06680D2A0AD2376BD21FB8
:1004600002EB820293409F430B6893401F43376324
:1004700009E0F76A0D3A02EB820293409F430B6852
:1004800093401F43F7620A68072306680A2A0AD3C3
:10049000F7680A3A02EB420293409F438B6893400D
:1004A0001F43F76008E0376902EB420293409F4325
:1004B0008B6893401F4337610A68102A01D0112AC4
:1004C00020D1124B02689A4217D193681B0219D4AB
:1004D000936843F4000393600968102912D10C4912
:1004E0000C4A0968B1FBF2F101EB8101490000E01F
:1004F000491E00910029FBD104E0816A41F02001EE
:100500008162012480F824502046F8BD0024014077
:100510006400002040420F007047704770470000A1
:100520002DE9F0414FF0000704003D467ED0A06A5F
:10053000002628B9E66284F82460204600F07EF8A0
:100540002046FFF701FEA16AC90600D420B1A06AC7
:1005500040F01000A06269E0A16A21F4885141F0E6
:100560000201A1626268E169E3680A4347EA430164
:100570000A43A1684FF48077B94209D0012907D016
:100580005FF00001D4F814C0BCF1010F02D00AE002
:100590003946F7E7F3B1A36A43F02003A362E36AA5
:1005A00043F00103E3622368D3F804C02CF4694CE0
:1005B0004CEA010CC3F804C021688B68DFF870C0F6
:1005C00003EA0C0313438B60A168B9420BD00129E5
:1005D00009D00CE0DFF85CC0A3690CEB43330B439C
:1005E00043F40061DFE7218A0D05A5F58015216838
:1005F000CB6A23F470032B43CB62216889680E4BCE
:100600001940914208D1E662A16A21F0020141F04D
:100610000101A162BDE8F081A06A20F0020040F073
:100620001000A062E06A40F00100E0620120F1E702
:10063000FDF7E1FF00E0FFFFFE0E1FFF30B50546AE
:100640000068174985B0884228D11648816941F46D
:10065000007181618069694600F400700490032094
:1006600000900190104800F0EDFA114C0F488021E5
:10067000206000206060C4E9020149002161890016
:1006800061612021C4E90610204600F05FFA18B12C
:10069000762108A001F05FFF2C62656205B030BDD5
:1006A0000024014000100240000C014008000240FC
:1006B000FC0100202E2E2F5372632F73746D333282
:1006C000663178785F68616C5F6D73702E630000CF
:1006D0002DE9F047894604463B4900683B4F0E1D13
:1006E0009046884201D0B84207D1306810F4702F8C
:1006F00003D001252846BDE8F08794F8240001289E
:100700000CD0012084F824002046FFF77DFD050071
:100710004FF0000004D084F82400EBE70220EAE761
:10072000A16A40F60162914341F48071A16221689F
:10073000B94218D1326812F4702F14D0A16A41F472
:100740008011A1623168490505D5A16A21F40051E3
:1007500041F48051A162A16AC9040AD5E16A21F07D
:100760000601E16206E0A26A22F48012A2624968F0
:10077000E9E7E06284F82400216A15488862216A6A
:100780001448C862216A1448086321686FF00200A7
:1007900008602068816841F4807181602168434667
:1007A0004A464C31206A00F003FA20688168C1F3A0
:1007B00042410729816803D041F48011816099E7A3
:1007C00041F4A001FAE700000024014000280140A4
:1007D00095010008FD010008E30100082DE9F04142
:1007E00004004FF0000504D094F83C00002618B136
:1007F00007E00120BDE8F08184F83D60204600F06C
:1008000083F8022084F83C002068016821F002018E
:1008100001602068016841F00101016000F0FAFA0E
:1008200007464FF0030804E000F0F4FAC01B0A2862
:1008300053D820684068C007F6D021684868C007D0
:1008400058D0A069012801D145F08005E069012850
:100850002FD025F04000226A012A2DD020F0200060
:10086000626A012A2BD020F01000A26A012A29D046
:1008700020F00800E26A012A27D020F004000A686C
:1008800022F0FC0202430A60D4E902010843D4E9E1
:100890000412114308436168491E08432168C86176
:1008A0002068016821F00101016000F0B3FA0546FB
:1008B00018E045F04000CEE740F02000D0E740F0DF
:1008C0001000D2E740F00800D4E740F00400D6E77B
:1008D00000F0A0FA401B0A2804D904F83C8F03203A
:1008E000667087E720684068C007F1D120684068DB
:1008F000C00703D0042084F83C007AE72664012076
:1009000084F83C00002075E710B50068114986B0F6
:1009100088421DD11048C16941F00071C161C069B0
:100920000E4C00F0007004904FF400600090002026
:10093000019002906946204600F084F9A0140090CE
:1009400002200190032003906946204600F07AF9C6
:1009500006B010BD006400400010024000080140D5
:1009600010B590F821100024022903D004218163DE
:1009700001243DE001680A6822F00E020A60016865
:100980000A6822F001020A601A4A0168914201D104
:10099000012121E0174A1432914201D110211BE0BC
:1009A000144A2832914201D1891515E0114A3C328E
:1009B000914201D189140FE00E4A5032914202D186
:1009C0004FF4803108E00B4A6432914202D14FF477
:1009D000801101E04FF08071064A083A5160012110
:1009E00080F82110002180F82010416B01B1884768
:1009F000204610BD080002402DE9F05FC16B0C6875
:100A000001680B68D0F840C0042202FA0CF2494D8C
:100A1000DFF824A1494E4A4FDFF828B1DFF828E17A
:100A200022422CD05A072AD50A68920603D40A68B3
:100A300022F004020A600168A94201D1042219E0EF
:100A4000514501D1402215E0B14202D14FF48062FC
:100A500010E0B94202D14FF480420BE0594502D177
:100A60004FF4802206E0714502D14FF4800201E08C
:100A70004FF080622F4908394A60C16A3BE04FF06D
:100A8000020808FA0CF818EA040F4FF000094FF0BA
:100A9000010235D05FEA837832D50B689B0605D416
:100AA0000B6823F00A030B6080F821200168A9423B
:100AB00001D1022219E0514501D1202215E0B142B5
:100AC00002D14FF4007210E0B94202D14FF400524B
:100AD0000BE0594502D14FF4003206E0714502D1D6
:100AE0004FF4001201E04FF00072124908394A60D9
:100AF00080F82090816A00291AD0BDE8F05F08478D
:100B0000082505FA0CF5254212D01B0710D50B68F5
:100B100023F00E030B6090F84010C36B02FA01F152
:100B20005960826380F8212080F82090016BE2E711
:100B3000BDE8F09F080002401C0002403000024067
:100B400044000240580002406C00024030B548B3F7
:100B500008C8154914221944B1FBF2F18900C16398
:100B600012498163022141771A6843F6F0718A4382
:100B7000D0E900142143D0E902452C432143046904
:100B800021434469214384692143114319600021B1
:100B900041628162C1620163416301224277017750
:100BA000084630BD012030BDF8FFFDBF0000024007
:100BB00070B5044690F82000002501280CD00120D3
:100BC00084F8200094F821600020012E06D084F8DB
:100BD00020000225284670BD022070BD022684F840
:100BE0002160A0632068066826F0010606602046A2
:100BF000FFF7DCFBE06A00282068016802D041F0C2
:100C00000E0106E021F0040101602068016841F056
:100C10000A0101602068016841F001010160D9E723
:100C200070B5044600F0F6F80546601C02D0044892
:100C30000078044400F0EEF8401BA042FAD370BDE7
:100C4000580000202DE9F84FDFF890A100220AF1AA
:100C5000040B144601274FF00F090BF1040E00BFDF
:100C60000B6807FA04F52B40AB4274D1DFF870C172
:100C70004E68A6EB0C0866452BD00DDC032E34D055
:100C800005DC36B3012E19D0022E2FD11BE0112E18
:100C900016D0122E2AD119E0B8F5881F19D006DC1B
:100CA000B8F5803F15D0B8F5801F1FD111E0B8F519
:100CB000001F0ED0B8F5041F18D10AE0CA6815E06D
:100CC000CA68121D12E0CA6808320FE0CA680C3206
:100CD0000CE08A682AB1012A4FF0080203D045616E
:100CE00004E0042202E0056100E00022FF2B01D8AD
:100CF000064601E000F104064FEA840501D9A5F19A
:100D00002005D6F800C009FA05F82CEA080C02FA0A
:100D100005F54CEA050CC6F800C04D68ED0057D546
:100D2000304DAE6946F00106AE61AD6924F00306B0
:100D300005F0010500952C4D06EB050CDCF808507C
:100D4000A6074FEA167809FA08F6B543274EB042CF
:100D500002D1002610E03BE0254EB04201D1012631
:100D60000AE0244EB04201D1022605E0224EB042F4
:100D700001D1032600E0042606FA08F62E43CCF83B
:100D800008604D68DAF80060ED03554601D51E4352
:100D900000E09E432E604D68DBF80060AD035D46C9
:100DA00001D51E4300E09E432E604D68DEF80060D2
:100DB000ED02754601D51E4300E09E432E604D684E
:100DC000AD020E4D2E6801D51E4300E09E432E60FD
:100DD000641C102CFFF444AFBDE8F88F0004014000
:100DE0000000111000100240000001400008014006
:100DF000000C014000100140001401400C040140AF
:100E00008068084000D0012070470AB10161704736
:100E10000904FBE701488068704700005800002083
:100E200070B504001BD094F83D00002520B984F86B
:100E30003C50204600F094F8242084F83D002068BF
:100E4000016821F00101016000F0BCFA404A6168CC
:100E5000914201D83F4900E03F49884201D2012038
:100E600070BD3E492368B0FBF1F15960636893425D
:100E700006D94FF4967359434FF47A73B1FBF3F1EB
:100E80002368491C19626168914210D84900401ECC
:100E9000B0FBF1F2521CC2F30B02042A01D204206F
:100EA00022E0B0FBF1F0401CC0F30B001CE0A36893
:100EB000CBB301EBC10202EB0116421EB2FBF6F20C
:100EC000521C42F48042120536D06BB301EBC102D2
:100ED00002EB0111401EB0FBF1F0401CC0F30B000F
:100EE00040F4804040F400402168C861D4E9070123
:100EF000084321680860D4E903100843216888602A
:100F0000D4E9050108432168C8602068016841F000
:100F1000010101602564202084F83D00256384F8E8
:100F20003E50002070BD00E008E001EB4106421E8B
:100F3000B2FBF6F2521CC6E70120D5E701EB4101F6
:100F4000401EB0FBF1F0401CC0F30B00CAE70000EC
:100F5000A086010080841E0000093D0040420F0071
:100F600000B500680C4985B0884213D14FF4406049
:100F70000090122001900320039069460748FFF774
:100F800061FE0748C16941F48001C161C06900F494
:100F90008000049005B000BD00580040000C0140E6
:100FA0000010024070B5040011D021684CF6CC400E
:100FB0000860216845F255500860D4E9000141609D
:100FC0002168A0688860FFF725FF054609E0012039
:100FD00070BD00BFFFF71EFF401B302801D9032062
:100FE00070BD2068C0680028F4D121684AF6AA20A4
:100FF0000860002070BD000002488168027811443A
:101000008160704758000020074810B5016841F022
:1010100010010160032000F09DF8002000F006F8A8
:1010200000F024F8002010BD0020024070B50D4DE6
:1010300004464FF47A712878B1FBF0F00A49096848
:10104000B1FBF0F000F0A3FB48B9102C07D200224E
:101050002146501E00F05EF800206C6070BD01203B
:1010600070BD00005800002064000020214808B531
:10107000816941F001018161816901F00101009103
:10108000C16941F08051C161C06900F08050009099
:10109000032000F05FF8002211466FF00B0000F013
:1010A00039F8002211466FF00A0000F033F80022F0
:1010B00011466FF0090000F02DF800221146501F74
:1010C00000F028F800221146101F00F023F800223B
:1010D0001146901E00F01EF800221146501E00F02E
:1010E00019F80548416821F0E06141F00071416064
:1010F00008BD0000001002400000014000F01F0287
:10110000012191404009800000F1E020C0F8001169
:1011100070470000F0B40E4B1B680C46C3F302236B
:10112000C3F10705042D00D90425191D072901D293
:10113000002300E0DB1E012606FA05F1491E2140CE
:1011400099409E40761E16403143F0BC00F046BEEA
:101150000CED00E0064900F0070208684FF6FF03B7
:10116000184040EA0220034A10430860704700001C
:101170000CED00E00000FA052DE9F8430546007883
:10118000354CC00754D0E0690026C00008D4E0699F
:1011900040F08050E061E069012600F0805000904E
:1011A0002E480168C90512D40168804641F4807157
:1011B0000160FFF72FFE074605E000BFFFF72AFE9C
:1011C000C01B642823D8D8F80000C005F6D5206AD3
:1011D00010F4407021D0A98801F4407181421CD0E4
:1011E000206A1F49012220F440700A6000220A6030
:1011F0002062C00711D0FFF70DFE074641F2883884
:1012000008E000BFFFF706FEC11B414502D90320DD
:10121000BDE8F883206A8007F4D5206A696820F465
:101220004070084320621EB1E06920F08050E06108
:101230002878800705D56068A96820F440400843F5
:1012400060602878C00605D56068E96820F48000F1
:10125000084360600020DBE700100240007000409F
:10126000400442422DE9F047DFF83C8105460E4636
:10127000D8F8000000F00700B0420CD2D8F80010F7
:1012800021F007013143C8F80010D8F8000000F041
:101290000700B04263D12878444C800705D56068C8
:1012A000A96820F0F000084360602878C00745D0A6
:1012B0006868012816D02168022816D089070029FD
:1012C0004DDA616821F0030101436160FFF7A2FD7F
:1012D0006968074641F2883001290FD0022981460A
:1012E00019D027E021688903E9E78901E7E700BF12
:1012F000FFF790FDC11B494501D918E081466068A0
:10130000C0F381000128F3D118E000BFFFF782FD90
:10131000C11B49450BD86068C0F381000228F5D194
:101320000CE000BFFFF776FDC11B494502D9032041
:10133000BDE8F087606810F00C0FF3D1D8F800100A
:10134000404601F00701B1420BD9016821F00701C5
:1013500031430160006800F00700B04201D0012075
:10136000E6E72878400705D56068E96820F4E06082
:10137000084360602878000706D56068296920F472
:10138000605040EAC100606000F03CF86168084AC3
:10139000C1F30311515CC840064908600020FFF703
:1013A00045FE0020C4E7000000200240001002407B
:1013B00054270008640000200148006870470000BE
:1013C000640000200448054900684968044AC1F3E4
:1013D0000221515CC84070476400002000100240A8
:1013E000642700080448054900684968044AC1F3B5
:1013F000C221515CC84070476400002000100240C8
:101400006427000812A185B00FC98DE80F0014A051
:10141000144A006804905168134801F00C03042B2F
:1014200010D0082B0ED1C1F38343C9031DF803006C
:101430000AD5516804AAC1F34041515C0A4A50439D
:10144000B0FBF1F005B0704708494843FAE70000E7
:1014500002030405060708090A0B0C0D0E0F1010F5
:10146000010200000010024000127A0000093D0055
:101470002DE9F84F04460078B94DC00748D0686898
:10148000C0F38100012807D06868C0F381000228FA
:1014900009D16868C00306D52868800338D560681C
:1014A00000286FD034E06068B0F5803F0BD010B1F9
:1014B000B0F5A02F11D0286820F48030286028686B
:1014C00020F4802002E0286840F4803028606068C2
:1014D00088B1FFF79FFC064609E0286840F48020A9
:1014E0002860F0E7FFF796FC801B642875D8286811
:1014F0008003F7D50CE0FFF78DFC064605E000BF42
:10150000FFF788FC801B6428F0D828688003F7D494
:101510002078944E80074FF001094FF000083BD52A
:10152000686810F00C0F07D06868C0F381000228CB
:1015300009D16868C00306D42868800714D52069DB
:1015400001281FD110E02069B0B1C6F80090FFF764
:1015500061FC074605E000BFFFF75CFCC01B0228EA
:10156000C4D828688007F7D52868616920F0F8009A
:1015700040EAC10028600FE0C6F80080FFF74AFC8F
:10158000074606E0E9E000BFFFF744FCC01B022865
:1015900023D828688007F7D4207800072CD5724814
:1015A000A169D9B1C0F80090FFF734FC074604E008
:1015B000FFF730FCC01B02280FD8686A8007F7D5F8
:1015C0006A484FF4FA510068B0FBF1F0009000BF98
:1015D0000098411E0091FAD20EE080E0C0F8008031
:1015E000FFF718FC074604E0FFF714FCC01B0228B5
:1015F00075D8686A8007F7D42078400760D5E86915
:101600000027C00008D4E86940F08050E861E8692C
:10161000012700F08050009055480168C90513D497
:101620000168834641F480710160FFF7F3FB824655
:1016300006E000BFFFF7EEFBA0EB0A0064284ED8DF
:10164000DBF80000C005F5D5E06801280AD008B134
:10165000052813D0286A20F001002862286A20F0AB
:10166000040002E0286A40F001002862E06841F2CC
:10167000883B98B1FFF7CEFB82460BE0286A40F02A
:1016800004002862EEE700BFFFF7C4FBA0EB0A01ED
:1016900059455AD8286A8007F6D50CE0FFF7BAFBFF
:1016A000824605E0FFF7B6FBA0EB0A0159454CD88E
:1016B000286A8007F6D41FB1E86920F08050E861FD
:1016C000E06988B36968C1F38101022945D0022825
:1016D000C6F8608004D0FFF79DFB044638E034E094
:1016E000FFF798FB074604E0FFF794FBC01B0228B6
:1016F0002BD828688001F7D4206AB0F5803F05D147
:101700006868A16820F4003008436860D4E90801E3
:101710000843696821F4741108436860C6F8609052
:10172000FFF778FB044606E015E000BFFFF772FB09
:10173000001B022809D828688001F7D50BE000BFFC
:10174000FFF768FB001B022802D90320BDE8F88FD1
:1017500028688001F4D40020F8E70120F6E70000B3
:101760000010024000004242800442426400002017
:10177000007000404FF0E0210428086903D020F0F9
:1017800004000861704740F00400FAE7704710B5A4
:10179000401EB0F1807F01D3012010BD4FF0E02446
:1017A00060610F21601700F019FB0020A061072085
:1017B0002061002010BD10B5FFF7E8FF10BD704795
:1017C00070B5026804461068D168536910F00F0FB5
:1017D00050D003F0010501F4907635435DD0C20787
:1017E00005D0CA0503D5E26B42F00102E26342076D
:1017F00005D5DA0703D0E26B42F00202E26382070A
:1018000005D5DA0703D0E26B42F00402E263020777
:1018100005D5DA0703D0E26B42F00802E263E26B1F
:10182000002A33D0800604D5880602D5204600F071
:1018300023FD20684069E16BC0F38010090700D4E4
:1018400028B3204600F0F8FC2068416949061AD503
:10185000416921F040014161606BA0B11B494163C6
:10186000606BFFF77DF8002810D0606B416BBDE81E
:1018700070400847830610D58B060ED52046BDE87C
:10188000704000F0F9BC2046FFF799FF70BD20467C
:10189000FFF795FF0020E06370BD030606D50B0639
:1018A00004D52046BDE8704000F0EABD4006F3D5FF
:1018B0004806F1D5D168204621F04001D1602021B1
:1018C00084F8391000F0FBF870BD000029220008F0
:1018D00070B5040004D094F83900002510B106E07A
:1018E000012070BD84F83850204600F023F82420F1
:1018F00084F839002068C16821F40051C160204695
:1019000000F006FD2068016921F490410161206822
:10191000416921F02A0141612068C16841F4005108
:10192000C160E563202084F8390084F83A00002083
:1019300070BD000010B50068154986B0884225D1F9
:101940001448816941F4804181618069124C00F43E
:10195000804004904FF4007000900220019003201A
:10196000039069462046FFF76DF900212015CDE967
:101970000001029169462046FFF764F900221146F2
:101980002520FFF7C7FB2520FFF7B8FB06B010BDE9
:1019900000380140001002400008014090F83A3041
:1019A000202B22D1F9B1F2B190F83830012B1CD0A4
:1019B00081628285C2850021C163222280F83A209B
:1019C00080F838100168CA6842F48072CA60016801
:1019D0004A6942F001024A610068C16841F0200191
:1019E000C16000207047012070470220704700004E
:1019F000034900680968884201D100F09DBB704727
:101A0000BC0100202DE9F843044690F839001F4638
:101A100016460D46202850D1A5B19EB194F8380045
:101A200001284AD0012084F838004FF00008C4F89B
:101A30003C80212084F83900FFF7ECF9A684814628
:101A4000E68426E00120BDE8F883E08C401EE084B7
:101A5000A0684B46B0F5805F4FF000024FF0800168
:101A60002046009703D000F03CFDE8B90DE000F0FF
:101A700038FDC8B928882168C0F30800486020698B
:101A800008B16D1C05E0AD1C03E0216815F8010BE1
:101A90004860E08C0028D8D14B46002240212046E7
:101AA000009700F01EFD08B10320CCE7202084F849
:101AB000390084F838800020C5E70220C3E770476A
:101AC000FEE710B5012000F097F800204FF4967162
:101AD000401C8842FCDB10BD70B50B4D0122042177
:101AE0002846FFF792F901214FF49674491CA14250
:101AF000FCDB002204212846FFF787F90220401C66
:101B0000A042FCDB70BD00000008014019B1C030EC
:101B1000C0B200F071B88030FAE7000010B5154C83
:101B2000002202212046FFF770F9002000F044F85F
:101B3000002201212046FFF768F9032000F03CF85D
:101B4000FFF7CAFFFFF7C8FFFFF7C6FF022000F04C
:101B500033F8FFF7C1FF282000F04EF80C2000F00A
:101B60004BF8062000F048F8BDE81040012000F0D6
:101B700043B800000008014070B5084C054601223A
:101B800011462046FFF741F9284600F035F8204677
:101B9000BDE8704000220121FFF737B9000801407D
:101BA00010B5044603E000BFFFF7E6FF641C207891
:101BB0000028F9D110BD000070B50E4D044600F0AC
:101BC000010208212846FFF720F9C4F34002102142
:101BD0002846FFF71AF9C4F3800220212846FFF7B0
:101BE00014F9C4F3C0022846BDE870404021FFF755
:101BF0000CB900000008014010B504460009FFF7C9
:101C0000DBFFFFF769FF2046FFF7D6FFBDE8104076
:101C1000FFF762BF3EB515481349012401608915DD
:101C2000C0E902140021416102254FF460220561E0
:101C3000C2614160FEF774FC00B1FEE70820CDE907
:101C400000040420029069460848FEF7E7FB00B153
:101C5000FEE70920CDE9000569460448FEF7DEFBF2
:101C6000002800D0FEE73EBD00240140E80000202F
:101C70000C4810B50A4901601021416000218160C3
:101C8000C160016141618161C16101624162816242
:101C9000C162FEF7A3FD002800D0FEE710BD0000E2
:101CA00000640040180100202DE9F047384886B054
:101CB000816941F010018161816901F01001049195
:101CC000816941F020018161816901F02001049165
:101CD000816941F004018161816901F0040104918D
:101CE000816941F00801816180692A4E00F0080095
:101CF0004FF460440490012221463046FFF785F8F6
:101D0000DFF89490002240F2FF114846FFF77DF87B
:101D1000DFF888A04FF47048012241465046FFF793
:101D200074F8009401240225CDE901456946304646
:101D30000395FEF787FF7F20002603278DE8D1005B
:101D400069464846FEF77EFF8020CDE900046946DB
:101D50004846CDE90245FEF775FFCDF80080CDE994
:101D60000145694650460395FEF76CFF20028DE859
:101D7000B10069464846FEF765FFF820CDE9000648
:101D8000694650460296FEF75DFF06B0BDE8F08753
:101D9000001002400010014000080140000C01400A
:101DA0000B4810B5094901600A49416000214FF410
:101DB00080428160C0E9031241618161C1610162B9
:101DC000FFF72EF8002800D0FEE710BD00580040B5
:101DD0005C010020A0860100FEE770470907090E9C
:101DE000002806DA00F00F0000F1E02080F8141D52
:101DF000704700F1E02080F8001470477047000041
:101E00002DE9F04FA1B00020694606460E54401C53
:101E10007E28FBDB874D884F287901286AD1874CC3
:101E200002200B18225C401C03F8022C8028F8DBEF
:101E3000824920784978112804D012280BD0222812
:101E40001DD050E00F2000EA111001F00F01FFF744
:101E50005DFE68460DE0E12904D0E22904D0E029C6
:101E60000AD040E0002100E001210020FFF74EFEF3
:101E700073A0FFF795FE36E0FFF723FE33E091BB3A
:101E8000DFF8D0814FF40049A27849464046FEF77A
:101E9000BCFF4FF4804AE27851464046FEF7B5FF5A
:101EA0004FF4005B227959464046FEF7AEFF627957
:101EB0004FF480513846FEF7A8FFA27959463846BC
:101EC000FEF7A3FFE27951463846FEF79EFF227ADD
:101ED00049463846FEF799FF607AA8B10022802172
:101EE0005D48FEF792FF00202654401C8028FBDB53
:101EF0002E71EE700821B8463846FEF781FF574C28
:101F00004FF47A7610B11AE00122E8E7474608213B
:101F10003846FEF775FF10B928790028F7D0FEF78C
:101F200079FF074605E000BFFEF774FFC01BB04213
:101F300005D800212078FEF7D9F90028F4D1102126
:101F40004046FEF75DFFC0B9474610213846FEF710
:101F500057FF10B928790028F7D0FEF75BFF074636
:101F600005E000BFFEF756FFC01BB04205D80121B7
:101F70002078FEF7BBF90028F4D120214046FEF777
:101F80003FFFC0B9474620213846FEF739FF10B958
:101F900028790028F7D0FEF73DFF074605E000BF8F
:101FA000FEF738FFC01BB04205D802212078FEF7AB
:101FB0009DF90028F4D140214046FEF721FFC0B929
:101FC000474640213846FEF71BFF10B92879002804
:101FD000F7D0FEF71FFF074605E000BFFEF71AFF28
:101FE000C01BB04205D803212078FEF77FF90028F6
:101FF000F4D1802147464046FEF702FF002816D163
:1020000080213846FEF7FCFE10B928790028F7D069
:10201000FEF700FF054604E0FEF7FCFE401BB04261
:1020200005D804212078FEF761F90028F4D121B009
:10203000BDE8F08F46000020000C01406800002041
:102040002020202020202020202020202020202090
:102050000000000000100140000801405000002076
:10206000704710B5FEF7C8FFBDE81040FFF7A3BBEF
:1020700030B593B00920012100904FF48030002545
:1020800004910691CDE901050224CDE907404FF402
:10209000E01009906846FFF7EBF900B1FEE70AA9E6
:1020A0000F2081E831004FF48060CDE90D05022159
:1020B0000AA8FFF7D7F800B1FEE74FF400401190EF
:1020C0000F940FA8FFF758F800B1FEE7FFF774F977
:1020D0004FF47A71B0FBF1F0FFF759FB0420FFF7E2
:1020E00049FB00221146501EFFF714F813B030BD13
:1020F0000D48016841F00101016041680B4A11403F
:10210000416001680A4A11400160016821F48021A0
:102110000160416821F4FE0141604FF41F018160BC
:102120000449C00308607047001002400000FFF837
:10213000FFFFF6FE08ED00E0F0B4364800214171E3
:10214000354A1378437111700246867808250123B9
:10215000324C12890B2E4ED2DFE806F0060B10151A
:10216000241A282C384853004279582A42D18370C7
:1021700041E04279422A3DD102213BE04279552A91
:1021800038D1032136E04279532A33D1052131E099
:10219000234A44791278A24201D1C37000E0C17091
:1021A000042127E041798171062123E041790181F1
:1021B00007211FE0437943EA022202818570C17141
:1021C00000202154401C8028FBDB14E0C37993429B
:1021D00010D2802A0ED24179E1545B1CD9B2C17170
:1021E000914201D1092105E0857004E042790D2A70
:1021F00000D10A218170F0BC012207490948FFF78C
:10220000CDBB42790A2A03D1C2780AB10371F1E742
:102210000171EFE746000020510000206800002017
:1022200052000020BC01002010B5406A0021C18589
:10223000C184FFF7C4FA10BD0168CA6822F4907225
:10224000CA6001684A6922F001024A61202180F8CF
:102250003A10704701B50A23012269460148FFF789
:10226000D1FB08BDBC0100200A4601460A230148F3
:10227000FFF7C8BBBC01002010B590F83A10222926
:1022800001D0022010BD8168B1F5805F11D00169D5
:10229000002901681FD0496801F07F03816A4A1C48
:1022A00082620B70C18D491E0904090CC18518D0CA
:1022B0002BE00269816A002A0268526805D0D2B216
:1022C0000A80816A491C8162ECE7C2F308020A8035
:1022D000816A891CF7E74A68816A4B1C83620A702D
:1022E000E0E70168CA6822F02002CA600168CA6893
:1022F00022F48072CA6001684A6922F001024A61D0
:10230000202180F83A10FFF773FB002010BD000079
:102310002DE9F041044600680169E26821F440516A
:10232000114301612169A06808436169084321687C
:10233000CA6841F20C639A430243CA60206841694B
:10234000A26921F44071114341614C492068642520
:10235000322688423CD1FFF745F800EBC00101EB83
:10236000001061688900B0FBF1F7FFF73BF800EB64
:10237000C00101EB00106168B0468900B0FBF1F0CC
:10238000B0FBF5F06FF01801484307EB800106EB56
:102390000110B0FBF5F000F0F006FFF723F800EBBA
:1023A000C00101EB001061688900B0FBF1F0B0FBE7
:1023B000F5F006EB0016FFF715F800EBC00101EB96
:1023C000001061688900B0FBF1F7FFF70BF83BE004
:1023D000FEF7F8FF00EBC00101EB00106168890017
:1023E000B0FBF1F7FEF7EEFF00EBC00101EB0010D0
:1023F0006168B0468900B0FBF1F0B0FBF5F06FF01A
:102400001801484307EB800106EB0110B0FBF5F023
:1024100000F0F006FEF7D6FF00EBC00101EB001064
:1024200061688900B0FBF1F0B0FBF5F006EB001637
:10243000FEF7C8FF00EBC00101EB001061688900E6
:10244000B0FBF1F7FEF7BEFF00EBC00101EB00109F
:1024500061688900B0FBF1F0B0FBF5F06FF0180196
:10246000484307EB800108EB0110B0FBF5F0216851
:1024700000F00F0030448860BDE8F0810038014072
:1024800090F83910212901D0022070478168B1F5F8
:10249000805F016A0BD04A1C0262026809785160B1
:1024A000C18C491E0904090CC1840ED017E00988AB
:1024B0000268C1F30801516001690029016A02D074
:1024C000491C0162ECE7891CFBE70168CA6822F03D
:1024D0008002CA600068C16841F04001C16000200C
:1024E00070472DE9F041984617460E460446069D72
:1024F0001DE0681C1BD02DB1FEF78CFCA0EB080082
:10250000A84214D92068C16821F4D071C160206844
:10251000416921F001014161202084F8390084F8EB
:102520003A00002084F838000320BDE8F0812068DC
:10253000006836EA000004D00020B842D9D000205C
:10254000F3E70120F9E700000148FFF739B900007F
:10255000BC010020FEE7FEE702E008C8121F08C128
:10256000002AFAD170477047002001E001C1121F14
:10257000002AFBD17047000008B5FEF745FDFFF7C4
:1025800077FDFFF791FB5D48416941F00101416131
:102590004069002200F00100009011460B20FEF778
:1025A000B9FD0B20FEF7AAFDFFF734FBFFF7F8FBA0
:1025B000FFF75EFB53485249002501604FF4165166
:1025C000C0E901150C21C560C0E904518561C561F0
:1025D000FFF77EF900B1FEE74A484B4F0C38062161
:1025E000C0E900714FF4CB618160FEF7DBFC00B104
:1025F000FEE7464E00224FF480713046FEF705FCA0
:10260000FFF78CFA6420FEF70BFBFFF75AFA404CF9
:1026100020212078FDF76AFEFDF748FEA0706420B7
:10262000FEF7FEFAFDF742FEA07040BBA088102125
:10263000401CA0802078FDF759FE00210846FFF7D6
:1026400065FA01210020FFF761FA32A0FFF7A8FA2E
:10265000FDF72CFEA070002280213046FEF7D5FB4E
:102660006420FEF7DDFA012280213046FEF7CDFB23
:102670006420FEF7D5FAA07810B1FFF722FA05E042
:10268000A0880A28D2D9A580FF20A070002280212E
:102690003046FEF7BAFB00210846FFF737FA21A0C3
:1026A000FFF77EFA01210020FFF730FA21A0FFF7A3
:1026B00077FA4FF47A70FEF7B3FA00210846FFF775
:1026C00025FA20A0FFF76CFA01210020FFF71EFA7F
:1026D0001CA0FFF765FAFFF7F4F90D490122491C28
:1026E0000848FFF75BF94AF6AA243C604CF6CC4058
:1026F000C7F80000FFF784FB3C60FBE700100240D6
:1027000000380140BC0100200030004000080140BA
:102710005000002041646472657373206973203037
:10272000783030002020414B5320564945544E41CB
:102730004D202000202020202020424B532020200C
:1027400020202000202020202020202020202020A9
:10275000202020000000000000000000010203040F
:102760000607080900000000010203048C27000886
:10277000000000206800000058250008F427000829
:1027800068000020D805000068250008000000004F
:10279000000000000000500A0100C90402000B0BF9
:1027A0000300060204009A0A0500E9050600430B2F
:1027B0000700BE0008006F0A090045050A00230B48
:1027C0000B00C8020C00B60A0D004E060E00590B95
:1027D0000F000000000000000000000000000000EA
:1027E00000000000010000001000000000000000D8
:0427F00000A24A04F5
:04000005080000ED02
:00000001FF
