:020000040800F2
:100000001006002001010008771F00080D1C0008E1
:10001000751F0008E9020008912700080000000091
:10002000000000000000000000000000E5210008C2
:10003000D703000800000000991F0008E72100080E
:100040001B0100081B0100081B0100081B01000820
:100050001B0100081B0100081B0100081B01000810
:100060001B0100081B0100081B010008A103000878
:100070001B0100081B0100081B0100081B010008F0
:100080001B0100081B0100081B0100081B010008E0
:100090001B0100081B0100081B0100081B010008D0
:1000A0001B0100081B0100081B0100081B010008C0
:1000B0001B0100081B0100081B0100081B010008B0
:1000C0001B0100081B0100081B0100081B010008A0
:1000D0001B010008852700081B0100081B01000800
:1000E0001B0100081B0100081B010008DFF80CD0F1
:1000F00000F018F800480047B52700081006002057
:100100000648804706480047FEE7FEE7FEE7FEE7B1
:10011000FEE7FEE7FEE7FEE7FEE7FEE76D220008EA
:10012000ED000008064C074D06E0E06840F00103D2
:1001300094E8070098471034AC42F6D3FFF7DAFF93
:10014000342900085429000870B504460068816805
:10015000C943C9071CD1816821F00101816000F009
:1001600059FE05460FE000BF00F054FE401B022878
:1001700009D9A06A40F01000A062E06A40F00100D6
:10018000E062012070BD20688068C043C007EBD0EA
:10019000002070BD10B50146406A826A12F0500F0F
:1001A00005D0006A026BBDE8104008461047816A1E
:1001B00041F40071816201688968C1F342410729F5
:1001C0000CD1C16851B9816A21F480718162816A60
:1001D000C90403D4816A41F00101816200F09CF9F5
:1001E00010BD10B5406A816A41F040018162C16A68
:1001F00041F00401C16200F091F910BD10B5406AF0
:1002000000F08BF910BD0000F8B5002604460096FA
:1002100000688168C943C90728D0816841F001019D
:100220008160134813490068B0FBF1F000E0401E04
:1002300000900028FBD100F0EDFD054611E000BF65
:1002400000F0E8FD401B02280BD9A06A40F0100026
:10025000A062E06A40F00100E06284F824600120BE
:10026000F8BD20688068C043C007E9D10020F8BD10
:100270006000002040420F0010B504460A48007894
:1002800000090A2801D2303000E0373002F000F9CE
:1002900004F00F000A2801D2303000E03730BDE80A
:1002A000104002F0F5B800005000002070B50C4C72
:1002B000207830B90222A11C0A4800F009FA012076
:1002C0002070074DAD1C288800F086F80446688829
:1002D00000F082F80146200100F0F000084370BDF4
:1002E0000000002084000020FEE700002DE9FC4112
:1002F000884624A10446D1E90001244DCDE900013E
:10030000287810B10120BDE8FC810122204F16029F
:100310003146384600F079FD052000F081FC0421CB
:10032000684602F0BFF8204602F0B2F8194C207877
:1003300002F0AEF8002002F0ABF80A2002F0A8F8B4
:10034000052115A002F0AEF8217801EB0800C0B23B
:10035000FFF792FF402002F09BF82078FFF78CFF18
:100360000D2002F095F80A2002F092F8052000F026
:1003700057FC00223146384600F047FD0020287027
:10038000C1E700005842555300000000460000201D
:1003900000080140500000200D0A49443A000000C6
:1003A000014800F029BB0000CC01002030B590F8D6
:1003B00040500124AC40C56B6C60046863604368C6
:1003C000102B036803D099600068C26030BD9A604A
:1003D0000068C16030BD704700B500F007F8024901
:1003E00001EB8000807800BD0600002030B50024BD
:1003F000094D0146224600BF35F82230C31A00D508
:100400005B429BB2994201D91946D4B2521C102AC0
:10041000F2DB204630BD000006000020F8B50024C5
:10042000009490F824202546012A12D0012280F859
:1004300024204A681F23072A0DD20668776B521EB4
:1004400002EB820293409F430B6893401F43776304
:1004500019E00220F8BD06680D2A0AD2376BD21FB8
:1004600002EB820293409F430B6893401F43376324
:1004700009E0F76A0D3A02EB820293409F430B6852
:1004800093401F43F7620A68072306680A2A0AD3C3
:10049000F7680A3A02EB420293409F438B6893400D
:1004A0001F43F76008E0376902EB420293409F4325
:1004B0008B6893401F4337610A68102A01D0112AC4
:1004C00020D1124B02689A4217D193681B0219D4AB
:1004D000936843F4000393600968102912D10C4912
:1004E0000C4A0968B1FBF2F101EB8101490000E01F
:1004F000491E00910029FBD104E0816A41F02001EE
:100500008162012480F824502046F8BD0024014077
:100510006000002040420F007047704770470000A5
:100520002DE9F0414FF0000704003D467ED0A06A5F
:10053000002628B9E66284F82460204600F07EF8A0
:100540002046FFF701FEA16AC90600D420B1A06AC7
:1005500040F01000A06269E0A16A21F4885141F0E6
:100560000201A1626268E169E3680A4347EA430164
:100570000A43A1684FF48077B94209D0012907D016
:100580005FF00001D4F814C0BCF1010F02D00AE002
:100590003946F7E7F3B1A36A43F02003A362E36AA5
:1005A00043F00103E3622368D3F804C02CF4694CE0
:1005B0004CEA010CC3F804C021688B68DFF870C0F6
:1005C00003EA0C0313438B60A168B9420BD00129E5
:1005D00009D00CE0DFF85CC0A3690CEB43330B439C
:1005E00043F40061DFE7218A0D05A5F58015216838
:1005F000CB6A23F470032B43CB62216889680E4BCE
:100600001940914208D1E662A16A21F0020141F04D
:100610000101A162BDE8F081A06A20F0020040F073
:100620001000A062E06A40F00100E0620120F1E702
:10063000FDF7E1FF00E0FFFFFE0E1FFF30B50546AE
:100640000068174985B0884228D11648816941F46D
:10065000007181618069694600F400700490032094
:1006600000900190104800F0EDFA114C0F488021E5
:10067000206000206060C4E9020149002161890016
:1006800061612021C4E90610204600F05FFA18B12C
:10069000762108A002F07DF82C62656205B030BDBD
:1006A0000024014000100240000C014008000240FC
:1006B000CC0100202E2E2F5372632F73746D3332B2
:1006C000663178785F68616C5F6D73702E630000CF
:1006D0002DE9F047894604463B4900683B4F0E1D13
:1006E0009046884201D0B84207D1306810F4702F8C
:1006F00003D001252846BDE8F08794F8240001289E
:100700000CD0012084F824002046FFF77DFD050071
:100710004FF0000004D084F82400EBE70220EAE761
:10072000A16A40F60162914341F48071A16221689F
:10073000B94218D1326812F4702F14D0A16A41F472
:100740008011A1623168490505D5A16A21F40051E3
:1007500041F48051A162A16AC9040AD5E16A21F07D
:100760000601E16206E0A26A22F48012A2624968F0
:10077000E9E7E06284F82400216A15488862216A6A
:100780001448C862216A1448086321686FF00200A7
:1007900008602068816841F4807181602168434667
:1007A0004A464C31206A00F003FA20688168C1F3A0
:1007B00042410729816803D041F48011816099E7A3
:1007C00041F4A001FAE700000024014000280140A4
:1007D00095010008FD010008E30100082DE9F04142
:1007E00004004FF0000504D094F83C00002618B136
:1007F00007E00120BDE8F08184F83D60204600F06C
:1008000083F8022084F83C002068016821F002018E
:1008100001602068016841F00101016000F0FAFA0E
:1008200007464FF0030804E000F0F4FAC01B0A2862
:1008300053D820684068C007F6D021684868C007D0
:1008400058D0A069012801D145F08005E069012850
:100850002FD025F04000226A012A2DD020F0200060
:10086000626A012A2BD020F01000A26A012A29D046
:1008700020F00800E26A012A27D020F004000A686C
:1008800022F0FC0202430A60D4E902010843D4E9E1
:100890000412114308436168491E08432168C86176
:1008A0002068016821F00101016000F0B3FA0546FB
:1008B00018E045F04000CEE740F02000D0E740F0DF
:1008C0001000D2E740F00800D4E740F00400D6E77B
:1008D00000F0A0FA401B0A2804D904F83C8F03203A
:1008E000667087E720684068C007F1D120684068DB
:1008F000C00703D0042084F83C007AE72664012076
:1009000084F83C00002075E710B50068114986B0F6
:1009100088421DD11048C16941F00071C161C069B0
:100920000E4C00F0007004904FF400600090002026
:10093000019002906946204600F084F9A0140090CE
:1009400002200190032003906946204600F07AF9C6
:1009500006B010BD006400400010024000080140D5
:1009600010B590F821100024022903D004218163DE
:1009700001243DE001680A6822F00E020A60016865
:100980000A6822F001020A601A4A0168914201D104
:10099000012121E0174A1432914201D110211BE0BC
:1009A000144A2832914201D1891515E0114A3C328E
:1009B000914201D189140FE00E4A5032914202D186
:1009C0004FF4803108E00B4A6432914202D14FF477
:1009D000801101E04FF08071064A083A5160012110
:1009E00080F82110002180F82010416B01B1884768
:1009F000204610BD080002402DE9F05FC16B0C6875
:100A000001680B68D0F840C0042202FA0CF2494D8C
:100A1000DFF824A1494E4A4FDFF828B1DFF828E17A
:100A200022422CD05A072AD50A68920603D40A68B3
:100A300022F004020A600168A94201D1042219E0EF
:100A4000514501D1402215E0B14202D14FF48062FC
:100A500010E0B94202D14FF480420BE0594502D177
:100A60004FF4802206E0714502D14FF4800201E08C
:100A70004FF080622F4908394A60C16A3BE04FF06D
:100A8000020808FA0CF818EA040F4FF000094FF0BA
:100A9000010235D05FEA837832D50B689B0605D416
:100AA0000B6823F00A030B6080F821200168A9423B
:100AB00001D1022219E0514501D1202215E0B142B5
:100AC00002D14FF4007210E0B94202D14FF400524B
:100AD0000BE0594502D14FF4003206E0714502D1D6
:100AE0004FF4001201E04FF00072124908394A60D9
:100AF00080F82090816A00291AD0BDE8F05F08478D
:100B0000082505FA0CF5254212D01B0710D50B68F5
:100B100023F00E030B6090F84010C36B02FA01F152
:100B20005960826380F8212080F82090016BE2E711
:100B3000BDE8F09F080002401C0002403000024067
:100B400044000240580002406C00024030B548B3F7
:100B500008C8154914221944B1FBF2F18900C16398
:100B600012498163022141771A6843F6F0718A4382
:100B7000D0E900142143D0E902452C432143046904
:100B800021434469214384692143114319600021B1
:100B900041628162C1620163416301224277017750
:100BA000084630BD012030BDF8FFFDBF0000024007
:100BB00070B5044690F82000002501280CD00120D3
:100BC00084F8200094F821600020012E06D084F8DB
:100BD00020000225284670BD022070BD022684F840
:100BE0002160A0632068066826F0010606602046A2
:100BF000FFF7DCFBE06A00282068016802D041F0C2
:100C00000E0106E021F0040101602068016841F056
:100C10000A0101602068016841F001010160D9E723
:100C200070B5044600F0F6F80546601C02D0044892
:100C30000078044400F0EEF8401BA042FAD370BDE7
:100C4000540000202DE9F84FDFF890A100220AF1AE
:100C5000040B144601274FF00F090BF1040E00BFDF
:100C60000B6807FA04F52B40AB4274D1DFF870C172
:100C70004E68A6EB0C0866452BD00DDC032E34D055
:100C800005DC36B3012E19D0022E2FD11BE0112E18
:100C900016D0122E2AD119E0B8F5881F19D006DC1B
:100CA000B8F5803F15D0B8F5801F1FD111E0B8F519
:100CB000001F0ED0B8F5041F18D10AE0CA6815E06D
:100CC000CA68121D12E0CA6808320FE0CA680C3206
:100CD0000CE08A682AB1012A4FF0080203D045616E
:100CE00004E0042202E0056100E00022FF2B01D8AD
:100CF000064601E000F104064FEA840501D9A5F19A
:100D00002005D6F800C009FA05F82CEA080C02FA0A
:100D100005F54CEA050CC6F800C04D68ED0057D546
:100D2000304DAE6946F00106AE61AD6924F00306B0
:100D300005F0010500952C4D06EB050CDCF808507C
:100D4000A6074FEA167809FA08F6B543274EB042CF
:100D500002D1002610E03BE0254EB04201D1012631
:100D60000AE0244EB04201D1022605E0224EB042F4
:100D700001D1032600E0042606FA08F62E43CCF83B
:100D800008604D68DAF80060ED03554601D51E4352
:100D900000E09E432E604D68DBF80060AD035D46C9
:100DA00001D51E4300E09E432E604D68DEF80060D2
:100DB000ED02754601D51E4300E09E432E604D684E
:100DC000AD020E4D2E6801D51E4300E09E432E60FD
:100DD000641C102CFFF444AFBDE8F88F0004014000
:100DE0000000111000100240000001400008014006
:100DF000000C014000100140001401400C040140AF
:100E00008068084000D0012070470AB10161704736
:100E10000904FBE701488068704700005400002087
:100E200070B504001BD094F83D00002520B984F86B
:100E30003C50204600F094F8242084F83D002068BF
:100E4000016821F00101016000F092FA404A6168F6
:100E5000914201D83F4900E03F49884201D2012038
:100E600070BD3E492368B0FBF1F15960636893425D
:100E700006D94FF4967359434FF47A73B1FBF3F1EB
:100E80002368491C19626168914210D84900401ECC
:100E9000B0FBF1F2521CC2F30B02042A01D204206F
:100EA00022E0B0FBF1F0401CC0F30B001CE0A36893
:100EB000CBB301EBC10202EB0116421EB2FBF6F20C
:100EC000521C42F48042120536D06BB301EBC102D2
:100ED00002EB0111401EB0FBF1F0401CC0F30B000F
:100EE00040F4804040F400402168C861D4E9070123
:100EF000084321680860D4E903100843216888602A
:100F0000D4E9050108432168C8602068016841F000
:100F1000010101602564202084F83D00256384F8E8
:100F20003E50002070BD00E008E001EB4106421E8B
:100F3000B2FBF6F2521CC6E70120D5E701EB4101F6
:100F4000401EB0FBF1F0401CC0F30B00CAE70000EC
:100F5000A086010080841E0000093D0040420F0071
:100F600000B500680C4985B0884213D14FF4406049
:100F70000090122001900320039069460748FFF774
:100F800061FE0748C16941F48001C161C06900F494
:100F90008000049005B000BD00580040000C0140E6
:100FA0000010024002488168027811448160704755
:100FB00054000020074810B5016841F0100101609D
:100FC000032000F09DF8002000F006F800F024F85F
:100FD000002010BD0020024070B50D4D04464FF4B6
:100FE0007A712878B1FBF0F00A490968B1FBF0F09A
:100FF00000F0A3FB48B9102C07D200222146501E56
:1010000000F05EF800206C6070BD012070BD000033
:101010005400002060000020214808B5816941F09B
:1010200001018161816901F001010091C16941F013
:101030008051C161C06900F080500090032000F031
:101040005FF8002211466FF00B0000F039F8002223
:1010500011466FF00A0000F033F8002211466FF0DD
:10106000090000F02DF800221146501F00F028F86A
:1010700000221146101F00F023F800221146901E96
:1010800000F01EF800221146501E00F019F8054825
:10109000416821F0E06141F00071416008BD00004D
:1010A000001002400000014000F01F0201219140A9
:1010B0004009800000F1E020C0F8001170470000F6
:1010C000F0B40E4B1B680C46C3F30223C3F10705B3
:1010D000042D00D90425191D072901D2002300E0A1
:1010E000DB1E012606FA05F1491E214099409E406B
:1010F000761E16403143F0BC00F03EBF0CED00E020
:10110000064900F0070208684FF6FF03184040EA5E
:101110000220034A10430860704700000CED00E015
:101120000000FA052DE9F84305460078354CC00764
:1011300054D0E0690026C00008D4E06940F0805037
:10114000E061E069012600F0805000902E480168BF
:10115000C90512D40168804641F480710160FFF72F
:1011600059FE074605E000BFFFF754FEC01B642888
:1011700023D8D8F80000C005F6D5206A10F44070D6
:1011800021D0A98801F4407181421CD0206A1F49F6
:10119000012220F440700A6000220A602062C00729
:1011A00011D0FFF737FE074641F2883808E000BF4C
:1011B000FFF730FEC11B414502D90320BDE8F8838B
:1011C000206A8007F4D5206A696820F440700843DB
:1011D00020621EB1E06920F08050E061287880072D
:1011E00005D56068A96820F440400843606028780D
:1011F000C00605D56068E96820F480000843606097
:101200000020DBE700100240007000404004424232
:101210002DE9F047DFF83C8105460E46D8F800007E
:1012200000F00700B0420CD2D8F8001021F00701FE
:101230003143C8F80010D8F8000000F00700B042B1
:1012400063D12878444C800705D56068A96820F0F0
:10125000F000084360602878C00745D0686801281E
:1012600016D02168022816D0890700294DDA616856
:1012700021F0030101436160FFF7CCFD6968074677
:1012800041F2883001290FD00229814619D027E088
:1012900021688903E9E78901E7E700BFFFF7BAFDA5
:1012A000C11B494501D918E081466068C0F381003F
:1012B0000128F3D118E000BFFFF7ACFDC11B494581
:1012C0000BD86068C0F381000228F5D10CE000BFA4
:1012D000FFF7A0FDC11B494502D90320BDE8F087F7
:1012E000606810F00C0FF3D1D8F80010404601F000
:1012F0000701B1420BD9016821F0070131430160B8
:10130000006800F00700B04201D00120E6E728782D
:10131000400705D56068E96820F4E0600843606034
:101320002878000706D56068296920F4605040EAF3
:10133000C100606000F03CF86168084AC1F3031125
:10134000515CC840064908600020FFF745FE0020B8
:10135000C4E7000000200240001002401C290008E1
:101360006000002001480068704700006000002015
:101370000448054900684968044AC1F30221515CE8
:10138000C840704760000020001002402C2900086F
:101390000448054900684968044AC1F3C221515C08
:1013A000C840704760000020001002402C2900084F
:1013B00012A185B00FC98DE80F0014A0144A00686F
:1013C00004905168134801F00C03042B10D0082B33
:1013D0000ED1C1F38343C9031DF803000AD5516838
:1013E00004AAC1F34041515C0A4A5043B0FBF1F0FA
:1013F00005B0704708494843FAE7000002030405B6
:10140000060708090A0B0C0D0E0F10100102000050
:101410000010024000127A0000093D002DE9F84F4B
:1014200004460078B94DC00748D06868C0F3810011
:10143000012807D06868C0F38100022809D16868D4
:10144000C00306D52868800338D5606800286FD0AF
:1014500034E06068B0F5803F0BD010B1B0F5A02F3C
:1014600011D0286820F480302860286820F480207B
:1014700002E0286840F480302860606888B1FFF797
:10148000C9FC064609E0286840F480202860F0E79F
:10149000FFF7C0FC801B642875D828688003F7D547
:1014A0000CE0FFF7B7FC064605E000BFFFF7B2FC13
:1014B000801B6428F0D828688003F7D42078944EE5
:1014C00080074FF001094FF000083BD5686810F025
:1014D0000C0F07D06868C0F38100022809D1686842
:1014E000C00306D42868800714D5206901281FD1BD
:1014F00010E02069B0B1C6F80090FFF78BFC0746FA
:1015000005E000BFFFF786FCC01B0228C4D828688E
:101510008007F7D52868616920F0F80040EAC1002B
:1015200028600FE0C6F80080FFF774FC074606E06D
:10153000E9E000BFFFF76EFCC01B022823D8286833
:101540008007F7D4207800072CD57248A169D9B15B
:10155000C0F80090FFF75EFC074604E0FFF75AFC76
:10156000C01B02280FD8686A8007F7D56A484FF475
:10157000FA510068B0FBF1F0009000BF0098411EE6
:101580000091FAD20EE080E0C0F80080FFF742FC44
:10159000074604E0FFF73EFCC01B022875D8686AC6
:1015A0008007F7D42078400760D5E8690027C0009D
:1015B00008D4E86940F08050E861E869012700F04C
:1015C0008050009055480168C90513D401688346CE
:1015D00041F480710160FFF71DFC824606E000BF08
:1015E000FFF718FCA0EB0A0064284ED8DBF80000D7
:1015F000C005F5D5E06801280AD008B1052813D048
:10160000286A20F001002862286A20F0040002E025
:10161000286A40F001002862E06841F2883B98B1F6
:10162000FFF7F8FB82460BE0286A40F004002862CE
:10163000EEE700BFFFF7EEFBA0EB0A0159455AD8D1
:10164000286A8007F6D50CE0FFF7E4FB824605E048
:10165000FFF7E0FBA0EB0A0159454CD8286A800748
:10166000F6D41FB1E86920F08050E861E06988B3E2
:101670006968C1F38101022945D00228C6F860805B
:1016800004D0FFF7C7FB044638E034E0FFF7C2FBA5
:10169000074604E0FFF7BEFBC01B02282BD82868D2
:1016A0008001F7D4206AB0F5803F05D16868A16851
:1016B00020F4003008436860D4E9080108436968F1
:1016C00021F4741108436860C6F86090FFF7A2FB2C
:1016D000044606E015E000BFFFF79CFB001B022854
:1016E00009D828688001F7D50BE000BFFFF792FB0F
:1016F000001B022802D90320BDE8F88F286880016A
:10170000F4D40020F8E70120F6E7000000100240C2
:10171000000042428004424260000020007000400D
:101720004FF0E0210428086903D020F0040008618C
:10173000704740F00400FAE7704710B5401EB0F162
:10174000807F01D3012010BD4FF0E02460610F21A4
:10175000601700F011FC0020A0610720206100202C
:1017600010BD10B5FFF7E8FF10BD30B590F83C2074
:10177000012A20D0012280F83C20022380F83D304D
:1017800003685C6824F070045C6003685C680D6842
:101790002C435C6003689C6824F080049C600368B0
:1017A0009C6849680C439C6080F83D20002180F8CB
:1017B0003C10084630BD022030BD10B5040003D0F7
:1017C00094F83D0010B107E0012010BD002084F81E
:1017D0003C00204600F00CF8022084F83D00211D5A
:1017E000206800F067FD012084F83D00002010BD56
:1017F00008B500680649884208D10648C16941F029
:101800000401C161C06900F00400009008BD00003F
:10181000000800400010024070B5044690F83C00FB
:10182000012817D0012584F83C50022084F83D009F
:101830002068826822F0770222F47F428260086882
:10184000502837D00DDC202859D005DC88B310286B
:1018500041D151E0022070BD302853D040283AD108
:101860003FE060282ED070280BD0B0F5805F03D009
:10187000B0F5005F2FD110E02068816821F00701EA
:1018800015E0CB68D1E90121206800F049FD21680D
:10189000886840F0770088601DE0CB68D1E90121BD
:1018A000206800F03DFD2068816841F4804181603E
:1018B00011E01EE0CA684968206800F043FD50212D
:1018C000206806E0CA684968206800F04CFD602185
:1018D000206800F02FFD84F83D50002084F83C0083
:1018E00070BDCA684968206800F02CFD402120685E
:1018F000EFE700212068ECE710212068E9E72021CC
:101900002068E6E730212068E3E7704770B5026899
:1019100004461068D168536910F00F0F50D003F0DF
:10192000010501F4907635435DD0C20705D0CA05A4
:1019300003D5E26B42F00102E263420705D5DA0704
:1019400003D0E26B42F00202E263820705D5DA07B8
:1019500003D0E26B42F00402E263020705D5DA0726
:1019600003D0E26B42F00802E263E26B002A33D05C
:10197000800604D5880602D5204600F09BFD20682D
:101980004069E16BC0F38010090700D428B32046FA
:1019900000F070FD2068416949061AD5416921F0BF
:1019A00040014161606BA0B11B494163606BFEF770
:1019B000D7FF002810D0606B416BBDE8704008472E
:1019C000830610D58B060ED52046BDE8704000F08A
:1019D00071BD2046FFF799FF70BD2046FFF795FFC8
:1019E0000020E06370BD030606D50B0604D5204633
:1019F000BDE8704000F062BE4006F3D54806F1D560
:101A0000D168204621F04001D160202184F83910AE
:101A100000F0FBF870BD00006524000870B50400FC
:101A200004D094F83900002510B106E0012070BD03
:101A300084F83850204600F023F8242084F8390038
:101A40002068C16821F40051C160204600F07EFD8D
:101A50002068016921F4904101612068416921F009
:101A60002A0141612068C16841F40051C160E56309
:101A7000202084F8390084F83A00002070BD00006E
:101A800010B50068154986B0884225D1144881698F
:101A900041F4804181618069124C00F480400490DF
:101AA0004FF40070009002200190032003906946DB
:101AB0002046FFF7C7F800212015CDE9000102916B
:101AC00069462046FFF7BEF8002211462520FFF7A1
:101AD000F7FA2520FFF7E8FA06B010BD00380140FC
:101AE000001002400008014090F83A30202B22D12B
:101AF000F9B1F2B190F83830012B1CD081628285A7
:101B0000C2850021C163222280F83A2080F8381073
:101B10000168CA6842F48072CA6001684A6942F08A
:101B200001024A610068C16841F02001C1600020E3
:101B30007047012070470220704700000349006889
:101B40000968884201D100F021BC70478C01002057
:101B50002DE9F843044690F839001F4616460D4615
:101B6000202850D1A5B19EB194F8380001284AD060
:101B7000012084F838004FF00008C4F83C80212090
:101B800084F83900FFF746F9A6848146E68426E00A
:101B90000120BDE8F883E08C401EE084A0684B463D
:101BA000B0F5805F4FF000024FF0800120460097B3
:101BB00003D000F0B4FDE8B90DE000F0B0FDC8B905
:101BC00028882168C0F308004860206908B16D1CAE
:101BD00005E0AD1C03E0216815F8010B4860E08CBE
:101BE0000028D8D14B46002240212046009700F023
:101BF00096FD08B10320CCE7202084F8390084F852
:101C000038800020C5E70220C3E77047FEE710B523
:101C1000012000F091F8BDE810400120FFF700B866
:101C200010B5094C012204212046FFF7EEF80120EF
:101C3000FEF7F6FF002204212046FFF7E6F8BDE894
:101C400010400120FEF7ECBF0008014019B1C03080
:101C5000C0B200F071B88030FAE7000010B5154C42
:101C6000002202212046FFF7D0F8002000F044F8BF
:101C7000002201212046FFF7C8F8032000F03CF8BD
:101C8000FFF7CEFFFFF7CCFFFFF7CAFF022000F0FF
:101C900033F8FFF7C5FF282000F04EF80C2000F0C5
:101CA0004BF8062000F048F8BDE81040012000F095
:101CB00043B800000008014070B5084C05460122F9
:101CC00011462046FFF7A1F8284600F035F82046D7
:101CD000BDE8704000220121FFF797B800080140DD
:101CE00010B5044603E000BFFFF7E6FF641C207850
:101CF0000028F9D110BD000070B50E4D044600F06B
:101D0000010208212846FFF780F8C4F340021021A1
:101D10002846FFF77AF8C4F3800220212846FFF70F
:101D200074F8C4F3C0022846BDE870404021FFF7B4
:101D30006CB800000008014010B504460009FFF728
:101D4000DBFFFFF76DFF2046FFF7D6FFBDE8104031
:101D5000FFF766BF3EB51548134901240160891598
:101D6000C0E902140021416102254FF4602205619F
:101D7000C2614160FEF7D4FB00B1FEE70820CDE967
:101D800000040420029069460848FEF747FB00B1B2
:101D9000FEE70920CDE9000569460448FEF73EFB51
:101DA000002800D0FEE73EBD002401408400002052
:101DB0000C4810B50A490160102141600021816082
:101DC000C160016141618161C16101624162816201
:101DD000C162FEF703FD002800D0FEE710BD000041
:101DE00000640040B40000202DE9F043394885B07C
:101DF000816941F010018161816901F01001049154
:101E0000816941F020018161816901F02001049123
:101E1000816941F004018161816901F0040104914B
:101E2000816941F00801816180692B4E00F0080052
:101E30004FF460440490012221463046FEF7E5FF4E
:101E4000DFF89880002240F2FF114046FEF7DDFFE8
:101E5000DFF88C904FF47047012239464846FEF770
:101E6000D4FF0125CDE9004502240294694630469D
:101E70000394FEF7E7FE7F2000268DE86100032033
:101E8000039069464046FEF7DDFE8020CDE900055F
:101E9000CDE9025469464046FEF7D4FE0097CDE9ED
:101EA0000154694648460394FEF7CCFEE0010090D9
:101EB000CDE90154694640460394FEF7C3FEF8207D
:101EC000CDE90006694648460296FEF7BBFE05B01E
:101ED000BDE8F083001002400010014000080140FE
:101EE000000C01400B4810B5094901600A494160E6
:101EF00000214FF480428160C0E903124161816199
:101F0000C1610162FEF78CFF002800D0FEE710BD22
:101F100000580040F8000020A086010010B51448C9
:101F200086B0124901604FF47A710024C0E90114AF
:101F300042F6E061C0E903148461FFF73EFC00B1A2
:101F4000FEE74FF48050009069460948FFF764FCB3
:101F500000B1FEE7049404A905480594FFF705FCC9
:101F6000002800D0FEE706B010BD000000080040C9
:101F70004C010020FEE770470907090E002806DA29
:101F800000F00F0000F1E02080F8141D704700F110
:101F9000E02080F800147047704700002DE9F047FA
:101FA000854C864E88B0A078012866D1844D0220E9
:101FB00069462A5C0B18401C03F8022C2028F8DB29
:101FC0007F4928784978112802D0222820D051E072
:101FD000E02909D24FF00F0000EA111001F00F01C3
:101FE000FFF734FE68460DE002D14FF0000105E036
:101FF000E12902D0E22908D03CE001210020FFF7CE
:1020000025FE70A0FFF76CFE34E0FFF700FE31E024
:1020100081BB714F4FF40048AA7841463846FEF71D
:10202000F4FE4FF48049EA7849463846FEF7EDFE63
:102030004FF4005A2A7951463846FEF7E6FE6A798F
:10204000B9143046FEF7E1FEAA7951463046FEF754
:10205000DCFEEA7949463046FEF7D7FE2A7A414649
:102060003046FEF7D2FE687A88B1002280215B48B4
:10207000FEF7CBFE0020A07060700821B04630460D
:10208000FEF7BEFE564D4FF47A7610B119E00122EC
:10209000ECE7474608213846FEF7B2FE10B9A078B3
:1020A0000028F7D0FEF7B6FE074604E0FEF7B2FEC2
:1020B000C01BB04205D800212878FEF717F9002888
:1020C000F4D110214046FEF79BFEC0B947461021CF
:1020D0003846FEF795FE10B9A0780028F7D0FEF735
:1020E00099FE074605E000BFFEF794FEC01BB04214
:1020F00005D801212878FEF7F9F80028F4D120212D
:102100004046FEF77DFEC0B9474620213846FEF71F
:1021100077FE10B9A0780028F7D0FEF77BFE0746BF
:1021200005E000BFFEF776FEC01BB04205D80221D5
:102130002878FEF7DBF80028F4D140214046FEF76E
:102140005FFEC0B9474640213846FEF759FE10B938
:10215000A0780028F7D0FEF75DFE074605E000BF37
:10216000FEF758FEC01BB04205D803212878FEF7C1
:10217000BDF80028F4D1802147464046FEF740FED6
:10218000002816D180213846FEF73AFE10B9A07813
:102190000028F7D0FEF73EFE044604E0FEF73AFEC4
:1021A000001BB04205D804212878FEF79FF80028CC
:1021B000F4D108B0BDE8F08746000020000C0140D3
:1021C000640000202020202020202020202020200B
:1021D00020202020000000000010014000080140E5
:1021E0004E000020704710B5FEF7DCFEBDE8104041
:1021F000FFF7B7BA30B593B00224012004900094E1
:102200001020059000254FF46010CDE90850079488
:102210006846FFF703F900B1FEE70AA90F2081E83D
:1022200031004FF48060CDE90D0502210AA8FEF7C8
:10223000EFFF00B1FEE74FF4004011900F940FA89C
:10224000FEF770FF00B1FEE7FFF78CF84FF47A71EC
:10225000B0FBF1F0FFF771FA0420FFF761FA0022FA
:102260001146501EFEF72CFF13B030BD0D4801681B
:1022700041F00101016041680B4A11404160016871
:102280000A4A11400160016821F48021016041681F
:1022900021F4FE0141604FF41F0181600449C00335
:1022A00008607047001002400000FFF8FFFFF6FED4
:1022B00008ED00E0F0B50268164B174C174D4FF0D3
:1022C0008047984205D0B84203D0A04201D0A8422E
:1022D00003D122F070064A683243984205D0B842D2
:1022E00003D0A04201D0A84203D122F44074CA68AE
:1022F000224322F080044A69224302608A68C26253
:102300000A688262984201D1096901630121416131
:10231000F0BD0000002C0140000400400008004017
:1023200010B5846842EA032224F47F440A4322431E
:10233000826010BD826822F070020A4342F00701F9
:102340008160704710B5036A046A24F001040462D6
:10235000846924F0F00444EA021423F00A020A43D8
:102360008461026210BD10B5036A23F0100303629A
:102370008369046A23F4704343EA023224F0A00321
:1023800043EA01118261016210BD0000F0B4314BDB
:102390002F4800211A78C270197003460778082662
:1023A00001242D4DDB880B2F44D2DFE807F0060A0D
:1023B0000E121F162225303F4900582A39D10470C9
:1023C00038E0422A35D1022133E0552A31D10321A8
:1023D0002FE0532A2DD105212BE0204B1B7893426F
:1023E00001D1447000E04170042122E00271062115
:1023F0001FE0C28007211CE042EA0322C28006706F
:10240000417100202954401C2028FBDB12E0447954
:102410009C420ED2202B0CD22A55641CE1B2417191
:10242000994201D1092104E0067003E00D2A00D190
:102430000A210170F0BC012206490948FFF754BB8C
:102440000A2A03D142780AB18470F2E78170F0E77A
:10245000460000204F0000206400002050000020B3
:102460008C01002010B5406A0021C185C184FFF7AE
:102470004CFA10BD0168CA6822F49072CA60016803
:102480004A6922F001024A61202180F83A1070471F
:1024900001B56423012269460148FFF759FB08BDD5
:1024A0008C0100200A46014664230148FFF750BB17
:1024B0008C01002010B590F83A10222901D002209A
:1024C00010BD8168B1F5805F11D0016900290168F4
:1024D0001FD0496801F07F03816A4A1C82620B7039
:1024E000C18D491E0904090CC18518D02BE0026971
:1024F000816A002A0268526805D0D2B20A80816AD5
:10250000491C8162ECE7C2F308020A80816A891CD7
:10251000F7E74A68816A4B1C83620A70E0E701684A
:10252000CA6822F02002CA600168CA6822F4807278
:10253000CA6001684A6922F001024A61202180F8DC
:102540003A10FFF7FBFA002010BD00002DE9F04122
:10255000044600680169E26821F4405111430161B9
:102560002169A0680843616908432168CA6841F28B
:102570000C639A430243CA6020684169A26921F44E
:102580004071114341614C492068642532268842DC
:102590003CD1FEF7FDFE00EBC00101EB00106168CD
:1025A0008900B0FBF1F7FEF7F3FE00EBC00101EB91
:1025B00000106168B0468900B0FBF1F0B0FBF5F0A7
:1025C0006FF01801484307EB800106EB0110B0FBE8
:1025D000F5F000F0F006FEF7DBFE00EBC00101EBCA
:1025E000001061688900B0FBF1F0B0FBF5F006EB7C
:1025F0000016FEF7CDFE00EBC00101EB0010616894
:102600008900B0FBF1F7FEF7C3FE3BE0FEF7B0FE3A
:1026100000EBC00101EB001061688900B0FBF1F72D
:10262000FEF7A6FE00EBC00101EB00106168B046AA
:102630008900B0FBF1F0B0FBF5F06FF018014843F2
:1026400007EB800106EB0110B0FBF5F000F0F0069F
:10265000FEF78EFE00EBC00101EB001061688900FF
:10266000B0FBF1F0B0FBF5F006EB0016FEF780FED4
:1026700000EBC00101EB001061688900B0FBF1F7CD
:10268000FEF776FE00EBC00101EB001061688900E7
:10269000B0FBF1F0B0FBF5F06FF01801484307EB29
:1026A000800108EB0110B0FBF5F0216800F00F008D
:1026B00030448860BDE8F0810038014090F839105E
:1026C000212901D0022070478168B1F5805F016A3D
:1026D0000BD04A1C0262026809785160C18C491E05
:1026E0000904090CC1840ED017E009880268C1F3FF
:1026F0000801516001690029016A02D0491C016288
:10270000ECE7891CFBE70168CA6822F08002CA6016
:102710000068C16841F04001C160002070472DE9A8
:10272000F041984617460E460446069D1DE0681C7B
:102730001BD02DB1FEF76EFBA0EB0800A84214D908
:102740002068C16821F4D071C1602068416921F01E
:1027500001014161202084F8390084F83A0000200A
:1027600084F838000320BDE8F0812068006836EA6C
:10277000000004D00020B842D9D00020F3E70120A7
:10278000F9E700000148FFF7C1B800008C01002004
:10279000FEE7FEE702E008C8121F08C1002AFAD1CE
:1027A00070477047002001E001C1121F002AFBD1D1
:1027B0007047000008B5FEF7FDFBFFF71BFDFFF7B4
:1027C00013FB4148416941F0010141614069002228
:1027D00000F00100009011460B20FEF771FC0B2069
:1027E000FEF762FCFFF7B6FAFFF77CFBFFF7E0FAB3
:1027F000374836490C2201604FF4E1314160002135
:102800008160C160C0E904128161C161FFF706F90E
:1028100000B1FEE7FFF782FBFFF720FA6420FEF726
:10282000FFF9FDF743FD2B4C6070FDF73FFD607035
:102830006420FEF7F5F96078274D28BB0021084693
:10284000FFF704FA25A0FFF74BFA01210020FFF75C
:10285000FDF926A0FFF744FAFDF728FD607000227D
:1028600080212846FEF7D1FA6420FEF7D9F901222B
:1028700080212846FEF7C9FA6420FEF7D1F9607876
:102880000028DBD0FFF7C3F9002280212846FEF79D
:10289000BCFA00210846FFF7D9F918A0FFF720FA83
:1028A00001210020FFF7D2F918A0FFF719FA4FF421
:1028B0007A70FEF7B5F9012206490548FFF714F9C9
:1028C000FFF76CFBFCE700000010024000380140FD
:1028D0008C0100204F000020000801402020426FA2
:1028E000617264204552524F52200000416464726C
:1028F0006573732069732030783030002020414B9D
:102900005320564945544E414D2020002020202080
:102910002020424B532020202020200000000000D7
:10292000000000000102030406070809000000007F
:102930000102030454290008000000206400000084
:1029400094270008B829000864000020AC050000A6
:10295000A427000800000000000000000000500A4A
:102960000100C90402000B0B0300060204009A0ACE
:102970000500E9050600430B0700BE0008006F0ACA
:10298000090045050A00230B0B00C8020C00B60A1B
:102990000D004E060E00590B0F0000000000000055
:1029A0000000000000000000010000001000000016
:0829B0000000000000A24A042F
:04000005080000ED02
:00000001FF
